:03000000020E7479
:0C0E7400787FE4F6D8FD758129020EBBE2
:1012860000A8C0003F065B4F666D7D077F6F007745
:101296007C395E79713D760F0E753837545C73670D
:1012A6003149783E1C7E646E59BF86DBCFE6EDFD84
:0312B60087FFEFC0
:030C8500011C004F
:1012E400E51CC3940F401CE51CD394F05015AF1CAF
:1012F4001213E2E51CB48005E4FF1213E2E51C2599
:04130400E0F51C22D2
:0D138E001213D3BF0104751C0F22E4F51CDF
:01139B00222F
:1010AD001213451213281213627D07E4FF1213B8B1
:1010BD007525037526047527057528067529077B83
:1010CD00027D01E4FF121308E4FF1213E27BFF7AA5
:1010DD001279E47F02120F8B7BFF7A13798E7F05D5
:0B10ED00120F8B1213E812124880FB58
:100B9C00E4F580900079E0FFB40800505F900BB052
:100BAC00F8282873020BC8020BCE020BD4020BDA06
:100BBC00020BE0020BEA020BF4020BFEC2A3C2A270
:100BCC008016C2A3C2A2801AC2A3C2A2801EC2A354
:100BDC00C2A28022C2A3D2A2C2A1C2A08020C2A360
:100BEC00D2A2C2A1D2A08016C2A3D2A2D2A1C2A06C
:100BFC00800CC2A3D2A2D2A1D2A08002D2A3C3EFF6
:100C0C00648094885029900079E0FF3395E0FE745D
:100C1C00702FF58274003EF583E0FF3395E0FE748F
:100C2C008A2FF58274123EF583E493F580801E9032
:100C3C000079E0FFB408133395E0FE74702FF58251
:100C4C0074003EF583E0F5808003E4F58090006F3E
:100C5C00E0FF900079E004FEF0D3EF6480F8EE64DE
:100C6C0080984014E0D36480948850047408F02277
:090C7C0090006EE0900079F02276
:10136200E4F5937594FF5395F043960F90002A7419
:0B137200FFF0A3740BF0A3749CF022AA
:0913B80090006EEFF0A3EDF022AD
:10130800900070EFF0A3EDF0A3EBF0A3E525F0A3B8
:10131800E526F0A3E527F0A3E528F0A3E529F022C8
:0613E200900078EFF022FC
:100C8800011D004100870041008405410085834122
:030C980000868350
:10113F00209206900085E014F0900084E014F07087
:10114F00347405F0A3E0FFC39480500EA3E09480A5
:10115F004018A37401F0F51D8010900086E0C39431
:10116F00805007A37402F0751D01900086EFF09078
:05117F0000857483F0FF
:011184002248
:02139C00151F1B
:09139E00A81FA61DE4F51DE6FFE1
:0313A700051F22FD
:1013280090003674FFF0A37413F0A3749CF090003F
:0D1338003374FFF0A37411F0A3743FF02292
:0713D300900087E0FFE4F049
:0113DA0022F0
:100C9B00011E0049007B94940094940094940041AD
:030CAB00007A1EAE
:02098C00151F35
:10098E0020B20690007BE014F020B30690007EE0CB
:10099E0014F0209706900081E014F090007AE01495
:1009AE00F06003020AAC741EF0A81FE4F6A81FE65E
:1009BE00FFC3648094834003020AACEF3395E0FEDC
:1009CE0090007B75F003EF1208ACEE75F003A425D2
:1009DE0083F583E0C39480503990007C75F003EF6B
:1009EE001208ACEE75F003A42583F583E0D3948052
:1009FE00405AE6FF3395E0FE90007D75F003EF124E
:100A0E0008ACEE75F003A42583F5837401F0F51E92
:100A1E00803AA81FE6FF3395E0FE90007C75F00348
:100A2E00EF1208ACEE75F003A42583F583E0C394B2
:100A3E0080501990007D75F003EF1208ACEE75F042
:100A4E0003A42583F5837402F0751E01A81FE6FF2B
:100A5E00FD3395E0FC90007B75F003ED1208ACECD5
:100A6E0075F003A42583F583E0FE90007C75F003FA
:100A7E00ED1208ACEC75F003A42583F583EEF0EFD0
:100A8E003395E0FE90007B75F003EF1208ACEE7527
:0E0A9E00F003A42583F5837494F0060209BBCF
:030AAC00051F2201
:0213AA00151F0D
:0913AC00A81FA61EE4F51EE6FFD1
:0313B500051F22EF
:1013450090003074FFF0A37413F0A374AAF090001A
:0D1355002D74FFF0A37409F0A3748CF02236
:1011C900EF600764016003BF0233EFFD3395E0FC74
:1011D90090007D75F003ED1208ACEC75F003A425C1
:1011E90083F583E0FE90007D75F003ED1208ACEC09
:0F11F90075F003A42583F583E4F0AF06227F038E
:0112080022C3
:100CAE004100000A4100290A41006D0A040E0000AD
:100CBE0000000114004600670000FFFF8FFFC10D0A
:100CCE00C105C108C101C10E60240005FF13F4FF68
:100CDE0013F4FF13F4FF13F4FF13F4FF13F4FF13D5
:100CEE00F4FF13F4FF13F4FF13F4FF13F4FF13F4E4
:100CFE006036002AFF13F4FF13F4FF13EEFF13F414
:100D0E00FF13EEFF13F4FF13EEFF13F4FF13F4FFC4
:100D1E0013F4FF13EEFF13EEFF13EEFF13EEFF13AC
:0A0D2E00F4FF13F4FF13F4FF13F4B5
:0113F40022D6
:0313EE007F00225B
:1010F800438E805389F07BE07A287901780090123A
:1011080086120890121185EFF404F58A7BE07A289C
:1011180079017800901286120890121185C3E49F15
:10112800FFE49EFE74019DFDE49CFC780812087C97
:071138008F8CD28CD2A9229A
:03000B0002105B85
:04105B00C0E0C0D061
:10105F00D5080A75084C300D020514D20DA2037283
:10106F00045036150AE50A7030850C0AD207300A8B
:10107F0017E50D6007150D438F01801D538FFEC2BD
:10108F00B5D51615C20A8011050BE50BD394064092
:09109F0008C203E5136002D20649
:0510A800D0D0D0E032C1
:10100800300E47C20E901286120890781012087C93
:101018008E1A8F1B900003E0FEA3E0FFE4FCFD7B2B
:1010280019FAF9F812082DC006C007AE1AAF1BABA3
:1010380007AA06E4F9F8D007D0061211857803123A
:10104800087C900065EEF0A3EFF0900065E0FEA349
:02105800E0FFB7
:01105A002273
:0913C100900067E0FEA3E0FF22AA
:0913CA00900067EEF0A3EFF022A1
:10137D0090006BEEF0A3EFF0900069ECF0A3EDF0B0
:01138D00223D
:0313F100C2B42261
:03003B00020D397A
:100D3900C0E0C083C082C0D075D000C004C005C067
:030D490006C007DA
:100D4C0030DF04C2DF807D30DA04C2DA807630D93D
:100D5C003DC2D9AFFBEFFEADEB7C00E42DFFEC3ECA
:100D6C0020000E900001F0A3EFF075DB11D2008093
:100D7C0053FE900001E0FCA3E0FDC3EF9DFFEE9C51
:100D8C00A3F0A3EFF075DB00C200D20E803630D892
:100D9C0033C2D8900067E07002A3E06022B2B49036
:100DAC000069E0FEA3E0F5EAEEF5FAA3E0FEA3E0AD
:100DBC00FF90006AE02FF0900069E03EF08005C2E1
:040DCC00B453DAFE44
:100DD000D007D006D005D004D0D0D082D083D0E0C8
:010DE00032E0
:0613E8001210F8D2AF2242
:100F00003004047F0180027F00200A047E018002F9
:100F10007E00EE5F6074E515C395095068300236B7
:100F2000750D01E515131313541FAB17AA18A91952
:100F3000F582758300120800FFE515540704FEEFE3
:100F4000A806088002C333D8FC30D7057516038085
:100F50002F751601802AAB17AA18A91975F002E59A
:100F600015A4F58285F083120800F50DE51575F0DE
:100F700002A429F9EA35F0FA900001120800F516EA
:0A0F80000515D20A22C204438F10A7
:010F8A002244
:100AAF00900000E014F0701F740AF0D20590002936
:100ABF00E014F07012740AF0D20890006DE014F098
:100ACF007005740AF0D20190002AA3E0FAA3E0F9AE
:100ADF001208B890002DA3E0FAA3E0F91208B8901D
:100AEF000039A3E0FAA3E0F91208B8900045A3E09B
:100AFF00FAA3E0F91208B8900054A3E0FAA3E0F9C2
:100B0F001208B890005DA3E0FAA3E0F91208B890BC
:100B1F00004BA3E0FAA3E0F91208B8EF600C9000C5
:100B2F001DA3E0FAA3E0F91208B890004EA3E0FA73
:100B3F00A3E0F91208B8EF600E900020A3E0FAA32B
:100B4F00E0F91208B8D20BE512D394004016D51273
:100B5F003030090C900023A3E0FAA3E0F91208B893
:100B6F00D20C801D900051A3E0FAA3E0F91208B84F
:100B7F00EF600E900023A3E0FAA3E0F91208B8D2B9
:0D0B8F000C900005A3E0FAA3E0F90208B8FD
:100DE10090003FA3E0FAA3E0F91208B8900042A3F3
:100DF100E0FAA3E0F91208B8900033A3E0FAA3E007
:100E0100F91208B8900008A3E0FAA3E0F91208B8B3
:100E1100900030A3E0FAA3E0F91208B8EF600C905B
:100E21000011A3E0FAA3E0F91208B8900036A3E09C
:100E3100FAA3E0F91208B8EF600C900017A3E0FAEA
:100E4100A3E0F91208B8900048A3E0FAA3E0F91270
:100E510008B8EF600C90001AA3E0FAA3E0F91208B9
:100E6100B830060EC206900026A3E0FAA3E0F912FC
:030E710008B8229C
:1012090090000BA3E0FAA3E0F91208B890003CA300
:10121900E0FAA3E0F91208B8EF600C900014A3E01B
:10122900FAA3E0F91208B8900057A3E0FAA3E0F98D
:0F1239001208B890005AA3E0FAA3E0F90208B82F
:1012B900AF11AE10AD0FAC0E9000601208A09000F7
:1012C90064E514F0E4F511F510F50FF50EF5149039
:0B12D900000EA3E0FAA3E0F90208B841
:10124800300705C207120F00300D05C20D120AAF94
:10125800300505C205120DE1300805C20812120951
:10126800300105C2011212B9E5112401F511E43566
:0E12780010F510E4350FF50FE4350EF50E22DB
:100F8B008B228A238924EFB40C005070900F9EF8AB
:100F9B00282873020FC2020FC7020FCC020FD10217
:100FAB000FD6020FDB020FE0020FE5020FEA020F72
:100FBB00EF020FF4020FF9900005803590000880C6
:100FCB003090000B802B90000E802690001180211A
:100FDB00900017801C900014801790001A801290BC
:100FEB00001D800D9000208008900023800390004E
:0D0FFB0026E522F0A3E523F0A3E524F02273
:0713DB007B017A007960221A
:100E80000210ADE493A3F8E493A34003F68001F2CB
:100E900008DFF48029E493A3F85407240CC8C33373
:100EA000C4540F4420C8834004F456800146F6DF42
:100EB000E4800B0102040810204080900C85E47E41
:100EC000019360BCA3FF543F30E509541FFEE49337
:100ED000A360010ECF54C025E060A840B8E493A3FE
:100EE000FAE493A3F8E493A3C8C582C8CAC583CA29
:100EF000F0A3C8C582C8CAC583CADFE9DEE780BEE1
:010D380000BA
:10080000BB010CE58229F582E5833AF583E02250AD
:1008100006E92582F8E622BBFE06E92582F8E222F7
:0D082000E58229F582E5833AF583E4932211
:10082D00E88FF0A4CC8BF0A42CFCE98EF0A42CFC6A
:10083D008AF0EDA42CFCEA8EF0A4CDA8F08BF0A4E8
:10084D002DCC3825F0FDE98FF0A42CCD35F0FCEB47
:10085D008EF0A4FEA9F0EB8FF0A4CFC5F02ECD390C
:0F086D00FEE43CFCEAA42DCE35F0FDE43CFC2279
:10118500C2D5E830E70FB2D5E4C39BFBE49AFAE495
:1011950099F9E498F8EC30E717B2D51211BB1208AB
:1011A500FAE4C39BFBE49AFAE499F9E498F880031E
:1011B5001208FA30D50DE4C39FFFE49EFEE49DFDC1
:0411C500E49CFC2288
:10087C00E86010ECA2E713FCED13FDEE13FEEF1392
:04088C00FFD8F0227F
:10089000E493FC740193FD740293FE740393FF22AE
:0C08A000ECF0A3EDF0A3EEF0A3EFF022CB
:0C08AC00A42582F582E5F03583F5832257
:0608B8008A838982E473CB
:1008BE0075F008758200EF2FFFEE33FECD33CDCCF1
:1008CE0033CCC58233C5829BED9AEC99E582984074
:1008DE000CF582EE9BFEED9AFDEC99FC0FD5F0D651
:1008EE00E4CEFBE4CDFAE4CCF9A88222B800C1B97B
:1008FE000059BA002DEC8BF084CFCECDFCE5F0CBB9
:10090E00F97818EF2FFFEE33FEED33FDEC33FCEBF1
:10091E0033FB10D703994004EB99FB0FD8E5E4F9AC
:10092E00FA227818EF2FFFEE33FEED33FDEC33FC99
:10093E00C933C910D7059BE99A4007EC9BFCE99A8D
:10094E00F90FD8E0E4C9FAE4CCFB2275F010EF2FD2
:10095E00FFEE33FEED33FDCC33CCC833C810D707D2
:10096E009BEC9AE899400AED9BFDEC9AFCE899F80D
:0E097E000FD5F0DAE4CDFBE4CCFAE4C8F922A0
:00000001FF
