:03000000020E618C
:0C0E6100787FE4F6D8FD758129020EA808
:1011E20000A8C0003F065B4F666D7D077F6F0077EA
:1011F2007C395E79713D760F0E753837545C7367B2
:101202003149783E1C7E646E59BF86DBCFE6EDFD28
:0312120087FFEF64
:030D2D00011C0A9C
:0F12E900E4FF121125BF0104751C1222751C0AA7
:0112F80022D3
:1012A2001212E975250A75260A75270A75280A8514
:0B12B2001C297B0A7D0A7F0A021265DE
:101240001212BD1212857D07E4FF121307E4FF128C
:1012500013297BFF7A1279A27F04120F7812132FC1
:051260001211A480FB47
:100B9C00E4F580900079E0FFB40800505F900BB052
:100BAC00F8282873020BC8020BCE020BD4020BDA06
:100BBC00020BE0020BEA020BF4020BFEC2A3C2A270
:100BCC008016C2A3C2A2801AC2A3C2A2801EC2A354
:100BDC00C2A28022C2A3D2A2C2A1C2A08020C2A360
:100BEC00D2A2C2A1D2A08016C2A3D2A2D2A1C2A06C
:100BFC00800CC2A3D2A2D2A1D2A08002D2A3C3EFF6
:100C0C00648094885029900079E0FF3395E0FE745D
:100C1C00702FF58274003EF583E0FF3395E0FE748F
:100C2C00E62FF58274113EF583E493F580801E90D7
:100C3C000079E0FFB408133395E0FE74702FF58251
:100C4C0074003EF583E0F5808003E4F58090006F3E
:100C5C00E0FF900079E004FEF0D3EF6480F8EE64DE
:100C6C0080984014E0D36480948850047408F02277
:090C7C0090006EE0900079F02276
:1012BD00E4F5937594FF5395F043960F90002A74BF
:0B12CD00FFF0A3740BF0A3749CF02250
:0913070090006EEFF0A3EDF0225E
:10126500900070EFF0A3EDF0A3EBF0A3E525F0A35C
:10127500E526F0A3E527F0A3E528F0A3E529F0226C
:06132900900078EFF022B5
:100D3000011D0049007B9494009494009494004118
:030D4000007A1E18
:02098C00151E36
:10098E0020B20690007BE014F020B30690007EE0CB
:10099E0014F0209706900081E014F090007AE01495
:1009AE00F06003020AAC741EF0A81EE4F6A81EE660
:1009BE00FFC3648094834003020AACEF3395E0FEDC
:1009CE0090007B75F003EF1208ACEE75F003A425D2
:1009DE0083F583E0C39480503990007C75F003EF6B
:1009EE001208ACEE75F003A42583F583E0D3948052
:1009FE00405AE6FF3395E0FE90007D75F003EF124E
:100A0E0008ACEE75F003A42583F5837401F0F51D93
:100A1E00803AA81EE6FF3395E0FE90007C75F00349
:100A2E00EF1208ACEE75F003A42583F583E0C394B2
:100A3E0080501990007D75F003EF1208ACEE75F042
:100A4E0003A42583F5837402F0751D01A81EE6FF2D
:100A5E00FD3395E0FC90007B75F003ED1208ACECD5
:100A6E0075F003A42583F583E0FE90007C75F003FA
:100A7E00ED1208ACEC75F003A42583F583EEF0EFD0
:100A8E003395E0FE90007B75F003EF1208ACEE7527
:0E0A9E00F003A42583F5837494F0060209BBCF
:030AAC00051E2202
:0212F900151EC0
:0912FB00A81EA61DE4F51DE6FF86
:03130400051E22A1
:1012850090003074FFF0A37412F0A374F9F090008D
:0D1295002D74FFF0A37409F0A3748CF022F7
:10112500EF600764016003BF0233EFFD3395E0FC18
:1011350090007D75F003ED1208ACEC75F003A42565
:1011450083F583E0FE90007D75F003ED1208ACECAD
:0F11550075F003A42583F583E4F0AF06227F0332
:011164002268
:100D43004100000A4100290A41006D0A040E000017
:100D530000000114004600670000FFFF8FFFC10D74
:100D6300C105C108C101C10E60240005FF133BFF8B
:100D7300133BFF133BFF133BFF133BFF133BFF13DC
:100D83003BFF133BFF133BFF133BFF133BFF133BA4
:100D93006036002AFF133BFF133BFF1335FF133B62
:100DA300FF1335FF133BFF1335FF133BFF133BFFCC
:100DB300133BFF1335FF1335FF1335FF1335FF13B4
:0A0DC3003BFF133BFF133BFF133B04
:01133B00228F
:031335007F002214
:10109A00438E805389F07BE07A2879017800901199
:1010AA00E21208901210E1EFF404F58A7BE07A2844
:1010BA00790178009011E21208901210E1C3E49FBE
:1010CA00FFE49EFE74019DFDE49CFC780812087CF6
:0710DA008F8CD28CD2A922F9
:03000B0002104898
:04104800C0E0C0D074
:10104C00D5080A75084C300D020514D20DA2037296
:10105C00045036150AE50A7030850C0AD207300A9E
:10106C0017E50D6007150D438F01801D538FFEC2D0
:10107C00B5D51615C20A8011050BE50BD3940640A5
:09108C0008C203E5136002D2065C
:05109500D0D0D0E032D4
:100FF500300E47C20E9011E2120890781012087C4C
:101005008E1A8F1B900003E0FEA3E0FFE4FCFD7B3E
:1010150019FAF9F812082DC006C007AE1AAF1BABB6
:1010250007AA06E4F9F8D007D0061210E1780312F2
:10103500087C900065EEF0A3EFF0900065E0FEA35C
:02104500E0FFCA
:011047002286
:09131000900067E0FEA3E0FF225B
:09131900900067EEF0A3EFF02252
:1012D80090006BEEF0A3EFF0900069ECF0A3EDF056
:0112E80022E3
:03133800C2B4221A
:03003B00020C852F
:100C8500C0E0C083C082C0D075D000C004C005C01C
:030C950006C0078F
:100C980030DF04C2DF807D30DA04C2DA807630D9F2
:100CA8003DC2D9AFFBEFFEADEB7C00E42DFFEC3E7F
:100CB80020000E900001F0A3EFF075DB11D2008048
:100CC80053FE900001E0FCA3E0FDC3EF9DFFEE9C06
:100CD800A3F0A3EFF075DB00C200D20E803630D847
:100CE80033C2D8900067E07002A3E06022B2B490EB
:100CF8000069E0FEA3E0F5EAEEF5FAA3E0FEA3E062
:100D0800FF90006AE02FF0900069E03EF08005C295
:040D1800B453DAFEF8
:100D1C00D007D006D005D004D0D0D082D083D0E07C
:010D2C003294
:06132F0012109AD2AF2259
:100EED003004047F0180027F00200A047E0180020D
:100EFD007E00EE5F6074E515C395095068300236CB
:100F0D00750D01E515131313541FAB17AA18A91965
:100F1D00F582758300120800FFE515540704FEEFF6
:100F2D00A806088002C333D8FC30D7057516038098
:100F3D002F751601802AAB17AA18A91975F002E5AD
:100F4D0015A4F58285F083120800F50DE51575F0F1
:100F5D0002A429F9EA35F0FA900001120800F516FD
:0A0F6D000515D20A22C204438F10BA
:010F77002257
:100AAF00900000E014F0701F740AF0D20590002936
:100ABF00E014F07012740AF0D20890006DE014F098
:100ACF007005740AF0D20190002AA3E0FAA3E0F9AE
:100ADF001208B890002DA3E0FAA3E0F91208B8901D
:100AEF000039A3E0FAA3E0F91208B8900045A3E09B
:100AFF00FAA3E0F91208B8900054A3E0FAA3E0F9C2
:100B0F001208B890005DA3E0FAA3E0F91208B890BC
:100B1F00004BA3E0FAA3E0F91208B8EF600C9000C5
:100B2F001DA3E0FAA3E0F91208B890004EA3E0FA73
:100B3F00A3E0F91208B8EF600E900020A3E0FAA32B
:100B4F00E0F91208B8D20BE512D394004016D51273
:100B5F003030090C900023A3E0FAA3E0F91208B893
:100B6F00D20C801D900051A3E0FAA3E0F91208B84F
:100B7F00EF600E900023A3E0FAA3E0F91208B8D2B9
:0D0B8F000C900005A3E0FAA3E0F90208B8FD
:100DCE0090003FA3E0FAA3E0F91208B8900042A306
:100DDE00E0FAA3E0F91208B8900033A3E0FAA3E01A
:100DEE00F91208B8900008A3E0FAA3E0F91208B8C7
:100DFE00900030A3E0FAA3E0F91208B8EF600C906F
:100E0E000011A3E0FAA3E0F91208B8900036A3E0AF
:100E1E00FAA3E0F91208B8EF600C900017A3E0FAFD
:100E2E00A3E0F91208B8900048A3E0FAA3E0F91283
:100E3E0008B8EF600C90001AA3E0FAA3E0F91208CC
:100E4E00B830060EC206900026A3E0FAA3E0F9120F
:030E5E0008B822AF
:1011650090000BA3E0FAA3E0F91208B890003CA3A5
:10117500E0FAA3E0F91208B8EF600C900014A3E0C0
:10118500FAA3E0F91208B8900057A3E0FAA3E0F932
:0F1195001208B890005AA3E0FAA3E0F90208B8D4
:10121500AF11AE10AD0FAC0E9000601208A090009B
:1012250064E514F0E4F511F510F50FF50EF51490DD
:0B123500000EA3E0FAA3E0F90208B8E5
:1011A400300705C207120EED300D05C20D120AAF4D
:1011B400300505C205120DCE300805C208121165AE
:1011C400300105C201121215E5112401F511E435AF
:0E11D40010F510E4350FF50FE4350EF50E2280
:100F78008B228A238924EFB40C005070900F8BF8D1
:100F8800282873020FAF020FB4020FB9020FBE0276
:100F98000FC3020FC8020FCD020FD2020FD7020FE4
:100FA800DC020FE1020FE690000580359000088012
:100FB8003090000B802B90000E802690001180212D
:100FC800900017801C900014801790001A801290CF
:100FD800001D800D90002080089000238003900061
:0D0FE80026E522F0A3E523F0A3E524F02286
:071322007B017A00796022D3
:100E6D00021240E493A3F8E493A34003F68001F249
:100E7D0008DFF48029E493A3F85407240CC8C33386
:100E8D00C4540F4420C8834004F456800146F6DF55
:100E9D00E4800B0102040810204080900D2DE47EAB
:100EAD00019360BCA3FF543F30E509541FFEE4934A
:100EBD00A360010ECF54C025E060A840B8E493A311
:100ECD00FAE493A3F8E493A3C8C582C8CAC583CA3C
:100EDD00F0A3C8C582C8CAC583CADFE9DEE780BEF4
:010DCD000025
:10080000BB010CE58229F582E5833AF583E02250AD
:1008100006E92582F8E622BBFE06E92582F8E222F7
:0D082000E58229F582E5833AF583E4932211
:10082D00E88FF0A4CC8BF0A42CFCE98EF0A42CFC6A
:10083D008AF0EDA42CFCEA8EF0A4CDA8F08BF0A4E8
:10084D002DCC3825F0FDE98FF0A42CCD35F0FCEB47
:10085D008EF0A4FEA9F0EB8FF0A4CFC5F02ECD390C
:0F086D00FEE43CFCEAA42DCE35F0FDE43CFC2279
:1010E100C2D5E830E70FB2D5E4C39BFBE49AFAE43A
:1010F10099F9E498F8EC30E717B2D51211171208F4
:10110100FAE4C39BFBE49AFAE499F9E498F88003C2
:101111001208FA30D50DE4C39FFFE49EFEE49DFD65
:04112100E49CFC222C
:10087C00E86010ECA2E713FCED13FDEE13FEEF1392
:04088C00FFD8F0227F
:10089000E493FC740193FD740293FE740393FF22AE
:0C08A000ECF0A3EDF0A3EEF0A3EFF022CB
:0C08AC00A42582F582E5F03583F5832257
:0608B8008A838982E473CB
:1008BE0075F008758200EF2FFFEE33FECD33CDCCF1
:1008CE0033CCC58233C5829BED9AEC99E582984074
:1008DE000CF582EE9BFEED9AFDEC99FC0FD5F0D651
:1008EE00E4CEFBE4CDFAE4CCF9A88222B800C1B97B
:1008FE000059BA002DEC8BF084CFCECDFCE5F0CBB9
:10090E00F97818EF2FFFEE33FEED33FDEC33FCEBF1
:10091E0033FB10D703994004EB99FB0FD8E5E4F9AC
:10092E00FA227818EF2FFFEE33FEED33FDEC33FC99
:10093E00C933C910D7059BE99A4007EC9BFCE99A8D
:10094E00F90FD8E0E4C9FAE4CCFB2275F010EF2FD2
:10095E00FFEE33FEED33FDCC33CCC833C810D707D2
:10096E009BEC9AE899400AED9BFDEC9AFCE899F80D
:0E097E000FD5F0DAE4CDFBE4CCFAE4C8F922A0
:00000001FF
