:0300000002128564
:0C128500787FE4F6D8FD75812B0212CCB6
:1016960000A8C0003110321033103410351031104C
:1016A6003110311032103310321032103210271030
:1016B6003110331035103510351035103510351002
:0C16C6003110311031103110331032108F
:1016FD001217E21217767F0112174E7BFF7A1679B9
:10170D00A475270075282E7529F17DFA7F7812149E
:09171D009112181F12165880FBEE
:04172600151F151F57
:10172A001217FDA81FA60608A607A81FE6FE08E6C8
:0F173A00FF4E600BEF24FFFFEE34FFFE12180688
:05174900051F051F2231
:1017760053B1EF43B210121834E4F5D975DA49D2F1
:10178600DE90003F74FFF0A37417F0A37426F022D6
:081419008E288F298C2A8D2BEF
:101421001217FDEF4E7066AF2BAE2A121806C3E5F8
:1014310029940AE5289400404BE47B18FAF9F890C6
:101441001696120CE7120C41C006C007AE28AF2950
:10145100AB07AA06E4F9F8D007D006120C41AB0796
:10146100AA06AFF9EFFEADE97C00E42DFFEC3ECF1B
:101471002BCF3AAD07FCAF03AE021217D1D2D8433E
:0F148100DA01800612183453DAFE7F02227F034D
:011490002239
:0C17F1001217FDEF4E7002FF227F012254
:101157004100000A4100290A41006D0A040E0000FF
:1011670000000114004600670000FFFF8FFFC10D5C
:10117700C105C108C101C10E60240005FF1837FF72
:101187001837FF1837FF1837FF1837FF1837FF18BA
:1011970037FF1837FF1837FF1837FF1837FF18378B
:1011A7006036002AFF1837FF1837FF1831FF183746
:1011B700FF1831FF1837FF1831FF1837FF1837FFAF
:1011C7001837FF1831FF1831FF1831FF1831FF1892
:0A11D70037FF1837FF1837FF1837ED
:01183700228E
:031831007F002213
:10158E00438E805389F07BE07A287901780090169B
:10159E0096120CE71215D5EFF404F58A7BE07A2843
:1015AE0079017800901696120CE71215D5C3E49FB8
:1015BE00FFE49EFE74019DFDE49CFC7808120CD3A2
:0715CE008F8CD28CD2A92200
:03000B0002153C9F
:04153C00C0E0C0D07B
:10154000D5080A75084C300D020514D20DA203729D
:10155000045036150AE50A7030850C0AD207300AA5
:1015600017E50D6007150D438F01801D538FFEC2D7
:10157000B5D51615C20A8011050BE50BD3940640AC
:0915800008C203E5136002D20663
:05158900D0D0D0E032DB
:1014E900300E47C20E901696120CE77810120CD3E4
:1014F9008E1D8F1E900003E0FEA3E0FFE4FCFD7B40
:1015090019FAF9F8120BB6C006C007AE1DAF1EAB2B
:1015190007AA06E4F9F8D007D0061215D578031200
:101529000CD3900065EEF0A3EFF0900065E0FEA308
:02153900E0FFD1
:01153B00228D
:0917FD00900067E0FEA3E0FF226A
:09180600900067EEF0A3EFF02260
:1017D10090006BEEF0A3EFF0900069ECF0A3EDF058
:0117E10022E5
:03183400C2B42219
:03003B000210AF01
:1010AF00C0E0C083C082C0D075D000C004C005C0EE
:0310BF0006C00761
:1010C20030DF04C2DF807D30DA04C2DA807630D9C4
:1010D2003DC2D9AFFBEFFEADEB7C00E42DFFEC3E51
:1010E20020000E900001F0A3EFF075DB11D200801A
:1010F20053FE900001E0FCA3E0FDC3EF9DFFEE9CD8
:10110200A3F0A3EFF075DB00C200D20E803630D818
:1011120033C2D8900067E07002A3E06022B2B490BC
:101122000069E0FEA3E0F5EAEEF5FAA3E0FEA3E033
:10113200FF90006AE02FF0900069E03EF08005C267
:04114200B453DAFECA
:10114600D007D006D005D004D0D0D082D083D0E04E
:011156003266
:06181F0012158ED2AF226B
:101311003004047F0180027F00200A047E018002E4
:101321007E00EE5F6074E515C395095068300236A2
:10133100750D01E515131313541FAB17AA18A9193D
:10134100F582758300120AF6FFE515540704FEEFD6
:10135100A806088002C333D8FC30D7057516038070
:101361002F751601802AAB17AA18A91975F002E585
:1013710015A4F58285F083120AF6F50DE51575F0D1
:1013810002A429F9EA35F0FA900001120AF6F516DD
:0A1391000515D20A22C204438F1092
:01139B00222F
:100E2F00900000E014F0701F740AF0D205900029B2
:100E3F00E014F07012740AF0D20890006DE014F014
:100E4F007005740AF0D20190002AA3E0FAA3E0F92A
:100E5F00120D0390002DA3E0FAA3E0F9120D0390F9
:100E6F000039A3E0FAA3E0F9120D03900045A3E0C7
:100E7F00FAA3E0F9120D03900054A3E0FAA3E0F9EE
:100E8F00120D0390005DA3E0FAA3E0F9120D039099
:100E9F00004BA3E0FAA3E0F9120D03EF600C9000F2
:100EAF001DA3E0FAA3E0F9120D0390004EA3E0FAA0
:100EBF00A3E0F9120D03EF600E900020A3E0FAA358
:100ECF00E0F9120D03D20BE512D394004016D512A0
:100EDF003030090C900023A3E0FAA3E0F9120D03C0
:100EEF00D20C801D900051A3E0FAA3E0F9120D037C
:100EFF00EF600E900023A3E0FAA3E0F9120D03D2E6
:0D0F0F000C900005A3E0FAA3E0F9020D0329
:1011F20090003FA3E0FAA3E0F9120D03900042A38E
:10120200E0FAA3E0F9120D03900033A3E0FAA3E0A1
:10121200F9120D03900008A3E0FAA3E0F9120D03FE
:10122200900030A3E0FAA3E0F9120D03EF600C90F6
:101232000011A3E0FAA3E0F9120D03900036A3E037
:10124200FAA3E0F9120D03EF600C900017A3E0FA85
:10125200A3E0F9120D03900048A3E0FAA3E0F9120B
:101262000D03EF600C90001AA3E0FAA3E0F9120D4F
:101272000330060EC206900026A3E0FAA3E0F9129C
:031282000D032237
:1016190090000BA3E0FAA3E0F9120D0390003CA39C
:10162900E0FAA3E0F9120D03EF600C900014A3E0B7
:10163900FAA3E0F9120D03900057A3E0FAA3E0F929
:0F164900120D0390005AA3E0FAA3E0F9020D037B
:1016D200AF11AE10AD0FAC0E900060120CF790007F
:1016E20064E514F0E4F511F510F50FF50EF514901C
:0B16F200000EA3E0FAA3E0F9020D03D4
:10165800300705C207121311300D05C20D120E2FE7
:10166800300505C2051211F2300805C20812161914
:10167800300105C2011216D2E5112401F511E43535
:0E16880010F510E4350FF50FE4350EF50E22C7
:10139C008B1A8A1B891CEFB40C0050709013AFF899
:1013AC002828730213D30213D80213DD0213E202AE
:1013BC0013E70213EC0213F10213F60213FB0214EF
:1013CC000002140502140A90000580359000088074
:1013DC003090000B802B90000E8026900011802105
:1013EC00900017801C900014801790001A801290A7
:1013FC00001D800D90002080089000238003900039
:0D140C0026E51AF0A3E51BF0A3E51CF02275
:071818007B017A00796022D8
:100D090000C400DC00F701060126014A01720188CE
:100D190001B801EE020B024B029302E403100370C7
:100D290003DC04160497052605C800DC00F7011545
:100D39000126014A0172019F01B801EE022A024B04
:100D4900029302E4033F037003DC0455049705266C
:100D590005C8067D00F701150137014A0172019F97
:100D690001D201EE022A026E029302E4033F03A4B8
:100D790003DC045504DD057505C8067D0749010630
:100D89000126014A015D018801B801EE020B024BFF
:100D9900029302BA0310037003DC041604970526B4
:100DA9000575062006E007B80126014A0172018887
:100DB90001B801EE022A024B029302E40310037008
:100DC90003DC04550497052605C8062006E007B884
:100DD90008AA014A0172019F01B801EE022A026EB6
:100DE900029302E4033F037003DC045504DD052686
:100DF90005C8067D06E007B808AA09B9015D01889A
:100E090001B801D2020B024B029302BA031003701C
:100E190003A40416049705260575062006E007496C
:060E2900082D092D0A4D01
:1011E1004D0071030000000000000000000000003D
:061005008F228D238B24D5
:10100B001217F1EF60037F0122E524D39400400611
:10101B00E52494114028E524D394174006E5249445
:10102B0021401BE524D394274006E5249431400E40
:10103B00E524D394375007E522C394F950037F037B
:10104B0022E524603DC4540F75F007A4FDACF0E518
:10105B002275F015A42DFFE5F03CFEE52454077C2A
:10106B00002FFFEC3EFEEF25E0FFEE33FE741F2F4B
:10107B00F58274E43EF583E493F526740193F5272A
:10108B008005E4F526F527AF257E007C017D7712E0
:10109B000B23AD231C120B35AD07AC06AF27AE26C9
:0310AB0012141903
:0110AE00221F
:04080000151F151F8C
:100804001217F1EF70047F0180027F00900071E005
:10081400FEB402047D0180027D00ED5F6003020AE4
:10082400F1EEB4030AE490006FF0A3F0020AF19031
:100834000072E0FFB4F3047E0180027E00EFB4F1A5
:10084400047F0180027F00EF4E603E900074E0FE62
:1008540075F06484FFEE75F00A8475F00A84ADF0D7
:10086400E075F00A84ABF075250A900073E0240764
:10087400F52690006EE0FEC4540F240AF52775286F
:100884000AEE5407F529121796900072E0FFB4F3AC
:10089400047E0180027E00EFB4F2047F0180027FB7
:1008A40000EF4E700302094A900074E0FD7C007E64
:1008B400177F70120B35A81FA607E6F975F002A47E
:1008C400FFC390007DE09F90007CE095F05070E0C5
:1008D400FEA3E0FF7C007D0B120B23E9FBFD120B52
:1008E40035A81F08A60790007CE475F001120BA040
:1008F400FED3E5F09BEE94004018A81F08E624F907
:10090400FFE47EF0A807088005CEC313CE13D8F900
:10091400801FA81F08E6FF740F7E00A80708800543
:10092400C333CE33CED8F97804CEA2E713CE13D88E
:10093400F8A81F08F6A81F08E6FF12182B8007E482
:1009440090007CF0A3F0900078E0FEA3E0FFC39059
:10095400007BE09F90007AE09E4003020AEB1217AE
:10096400F1EF6003020AF1900075E0FBA3E0FAA343
:10097400E0F990007AE0FEA3E0F5828E83120AF695
:10098400FFD394375003020A86EF241024FC5079D5
:10099400604524FE7003020A31147003020A4724DE
:1009A400026003020A75900075E0FBA3E0FAA3E07D
:1009B400F990007AE475F001120B8A85F082F583D0
:1009C400120AF6900073F090007BE004F0709890A7
:1009D400007AE004F08090900075E0FBA3E0FAA3B5
:1009E400E0F990007AE475F001120B8A85F082F543
:1009F40083120AF6900074F090007BE004F0706EAD
:100A040090007AE004F002096B900075E0FBA3E02B
:100A1400FAA3E0F990007AE475F001120BA085F0D6
:100A240082F583120AF6900072F002096B90007A44
:100A3400E475F001120B8AAFF090006FF0A3EFF0B1
:100A440002096B90006FE0FEA3E0FF4E601290007D
:100A54007AEEF0A3EFF0E490006FF0A3F002096BDC
:100A640090007BE004F0700690007AE004F0020944
:100A74006B90007BE004F0700690007AE004F002D2
:100A8400096B900078E0FEA3E0FFC390007BE09F39
:100A940090007AE09E5056900075E0FBA3E0FAA324
:100AA400E0F990007AE475F001120BA085F082F56C
:100AB40083120AF690006EF0900073E0FFA3E0FD4D
:100AC400A3E0FBA3E0FAA3E0F990007AE475F00157
:100AD400120BA085F082F583120AF6F52590006EBC
:0D0AE400E0FB12100580069000717403F015
:050AF100051F051F2296
:0F17E20090004274FFF0A37408F0A37400F0228B
:10149100900071E0B4030DE490007AF0A3F0A3F0A2
:1014A100A3F0C20FEF6004900074F0ED60049000AF
:1014B10073F0E94A60047F0180027F00E528452737
:1014C10060047E0180027E00EE5F6013900075EB88
:1014D100F0A3EAF0A3E9F0A3E527F0A3E528F0E5FE
:0814E100296004900072F02262
:10174E00BF02047E0180027E00BF01047D01800283
:10175E007D00ED4EFEBF03047D0180027D00ED4E47
:08176E006005900071EFF0220C
:06182500900071E0FF22BB
:100F1C00E4F580900089E0FFB40800505F900F303A
:100F2C00F8282873020F48020F4E020F54020F5A72
:100F3C00020F60020F6A020F74020F7EC2A3C2A2DC
:100F4C008016C2A3C2A2801AC2A3C2A2801EC2A3D0
:100F5C00C2A28022C2A3D2A2C2A1C2A08020C2A3DC
:100F6C00D2A2C2A1D2A08016C2A3D2A2D2A1C2A0E8
:100F7C00800CC2A3D2A2D2A1D2A08002D2A3C3EF72
:100F8C00648094885029900089E0FF3395E0FE74CA
:100F9C00802FF58274003EF583E0FF3395E0FE74FC
:100FAC00002FF58274003EF583E493F580801E904B
:100FBC000089E0FFB408133395E0FE74802FF582AE
:100FCC0074003EF583E0F5808003E4F58090007FAB
:100FDC00E0FF900089E004FEF0D3EF6480F8EE644B
:100FEC0080984014E0D36480948850047408F022F4
:090FFC0090007EE0900089F022D3
:1017B600E4F5937594FF5395F043960F90002A74C1
:0B17C600FFF0A3740FF0A3741CF022CE
:09180F0090007EEFF0A3EDF02241
:10179600900080EFF0A3EDF0A3EBF0A3E525F0A316
:1017A600E526F0A3E527F0A3E528F0A3E529F02236
:06182B00900088EFF0229E
:101291000216FDE493A3F8E493A34003F68001F260
:1012A10008DFF48029E493A3F85407240CC8C3335E
:1012B100C4540F4420C8834004F456800146F6DF2D
:1012C100E4800B0102040810204080901157E47E55
:1012D100019360BCA3FF543F30E509541FFEE49322
:1012E100A360010ECF54C025E060A840B8E493A3E9
:1012F100FAE493A3F8E493A3C8C582C8CAC583CA14
:10130100F0A3C8C582C8CAC583CADFE9DEE780BECB
:0111F10000FD
:100AF600BB010CE58229F582E5833AF583E02250B5
:100B060006E92582F8E622BBFE06E92582F8E222FE
:0D0B1600E58229F582E5833AF583E4932218
:100B2300EF8DF0A4A8F0CF8CF0A428CE8DF0A42EE6
:020B3300FE22A0
:100B3500BC000BBE0029EF8DF084FFADF022E4CCA4
:100B4500F875F008EF2FFFEE33FEEC33FCEE9DEC6D
:100B5500984005FCEE9DFE0FD5F0E9E4CEFD22EDB3
:100B6500F8F5F0EE8420D21CFEADF075F008EF2FFD
:100B7500FFED33FD4007985006D5F0F222C398FDEE
:050B85000FD5F0EA228B
:100B8A00C5F0F8A3E028F0C5F0F8E58215827002F6
:060B9A001583E038F02293
:100BA000A3F8E0C5F025F0F0E58215827002158308
:060BB000E0C838F0E82265
:100BB600E88FF0A4CC8BF0A42CFCE98EF0A42CFCDE
:100BC6008AF0EDA42CFCEA8EF0A4CDA8F08BF0A45C
:100BD6002DCC3825F0FDE98FF0A42CCD35F0FCEBBB
:100BE6008EF0A4FEA9F0EB8FF0A4CFC5F02ECD3980
:0F0BF600FEE43CFCEAA42DCE35F0FDE43CFC22ED
:100C050075F008758200EF2FFFEE33FECD33CDCCA6
:100C150033CCC58233C5829BED9AEC99E582984029
:100C25000CF582EE9BFEED9AFDEC99FC0FD5F0D606
:100C3500E4CEFBE4CDFAE4CCF9A88222B800C1B930
:100C45000059BA002DEC8BF084CFCECDFCE5F0CB6E
:100C5500F97818EF2FFFEE33FEED33FDEC33FCEBA7
:100C650033FB10D703994004EB99FB0FD8E5E4F962
:100C7500FA227818EF2FFFEE33FEED33FDEC33FC4F
:100C8500C933C910D7059BE99A4007EC9BFCE99A43
:100C9500F90FD8E0E4C9FAE4CCFB2275F010EF2F88
:100CA500FFEE33FEED33FDCC33CCC833C810D70788
:100CB5009BEC9AE899400AED9BFDEC9AFCE899F8C3
:0E0CC5000FD5F0DAE4CDFBE4CCFAE4C8F92256
:1015D500C2D5E830E70FB2D5E4C39BFBE49AFAE441
:1015E50099F9E498F8EC30E717B2D512160B120CFE
:1015F50041E4C39BFBE49AFAE499F9E498F8800383
:10160500120C4130D50DE4C39FFFE49EFEE49DFD21
:04161500E49CFC2233
:100CD300E86010ECA2E713FCED13FDEE13FEEF1337
:040CE300FFD8F02224
:100CE700E493FC740193FD740293FE740393FF2253
:0C0CF700ECF0A3EDF0A3EEF0A3EFF02270
:060D03008A838982E4737B
:00000001FF
