:03000000020C915E
:0C0C9100787FE4F6D8FD758129020CD8AC
:1010D70000A8C0003F065B4F666D7D077F6F000865
:0E10E70040017638BF86DBCFE6EDFD87FFEFD8
:10105D001210F5E4FF1211437D07E4FF1211217503
:10106D00250F75260C75270C7528027529017B0E29
:0F107D007D027F011210B712114912101F80FB64
:100A6D00E4F580900079E0FFB40800505F900A81B2
:100A7D00F8282873020A99020A9F020AA5020AABF6
:100A8D00020AB1020ABB020AC5020ACFC2A3C2A260
:100A9D008016C2A3C2A2801AC2A3C2A2801EC2A384
:100AAD00C2A28022C2A3D2A2C2A1C2A08020C2A390
:100ABD00D2A2C2A1D2A08016C2A3D2A2D2A1C2A09C
:100ACD00800CC2A3D2A2D2A1D2A08002D2A3C3EF26
:100ADD00648094885029900079E0FF3395E0FE748E
:100AED00702FF58274003EF583E0FF3395E0FE74C0
:100AFD00DB2FF58274103EF583E493F580801E9014
:100B0D000079E0FFB408133395E0FE74702FF58281
:100B1D0074003EF583E0F5808003E4F58090006F6E
:100B2D00E0FF900079E004FEF0D3EF6480F8EE640E
:100B3D0080984014E0D36480948850047408F022A7
:090B4D0090006EE0900079F022A6
:1010F500E4F5937594FF5395F043960F90002A7489
:0B110500FFF0A3740AF0A3746DF02249
:0911210090006EEFF0A3EDF02246
:1010B700900070EFF0A3EDF0A3EBF0A3E525F0A30C
:1010C700E526F0A3E527F0A3E528F0A3E529F0221C
:06114300900078EFF0229D
:100DA8004100000A4100290A41006D0A040E0000B2
:100DB80000000114004600670000FFFF8FFFC10D0F
:100DC800C105C108C101C10E60240005FF1155FF0E
:100DD8001155FF1155FF1155FF1155FF1155FF1101
:100DE80055FF1155FF1155FF1155FF1155FF1155AD
:100DF8006036002AFF1155FF1155FF114FFF11559D
:100E0800FF114FFF1155FF114FFF1155FF1155FFEE
:100E18001155FF114FFF114FFF114FFF114FFF11D8
:0A0E280055FF1155FF1155FF11553C
:011155002277
:03114F007F0022FC
:100F5500438E805389F07BE07A28790178009010E0
:100F6500D7120890120F9CEFF404F58A7BE07A28DB
:100F7500790178009010D7120890120F9CC3E49F56
:100F8500FFE49EFE74019DFDE49CFC780812087C3C
:070F95008F8CD28CD2A9223F
:03000B00020F03DE
:040F0300C0E0C0D0BA
:100F0700D5080A75084C300D020514D20DA20372DC
:100F1700045036150AE50A7030850C0AD207300AE4
:100F270017E50D6007150D438F01801D538FFEC216
:100F3700B5D51615C20A8011050BE50BD3940640EB
:090F470008C203E5136002D206A2
:050F5000D0D0D0E0321A
:100EB000300E47C20E9010D7120890781012087C9E
:100EC0008E1D8F1E900003E0FEA3E0FFE4FCFD7B7F
:100ED00019FAF9F812082DC006C007AE1DAF1EABF7
:100EE00007AA06E4F9F8D007D006120F9C7803127F
:100EF000087C900065EEF0A3EFF0900065E0FEA3A3
:020F0000E0FF10
:010F020022CC
:09112A00900067E0FEA3E0FF2243
:09113300900067EEF0A3EFF0223A
:1011100090006BEEF0A3EFF0900069ECF0A3EDF01F
:0111200022AC
:03115200C2B42202
:03003B00020B565F
:100B5600C0E0C083C082C0D075D000C004C005C04C
:030B660006C007BF
:100B690030DF04C2DF807D30DA04C2DA807630D922
:100B79003DC2D9AFFBEFFEADEB7C00E42DFFEC3EAF
:100B890020000E900001F0A3EFF075DB11D2008078
:100B990053FE900001E0FCA3E0FDC3EF9DFFEE9C36
:100BA900A3F0A3EFF075DB00C200D20E803630D877
:100BB90033C2D8900067E07002A3E06022B2B4901B
:100BC9000069E0FEA3E0F5EAEEF5FAA3E0FEA3E092
:100BD900FF90006AE02FF0900069E03EF08005C2C6
:040BE900B453DAFE29
:100BED00D007D006D005D004D0D0D082D083D0E0AD
:010BFD0032C5
:06114900120F55D2AF2287
:100D1D003004047F0180027F00200A047E018002DE
:100D2D007E00EE5F6074E515C3950950683002369C
:100D3D00750D01E515131313541FAB17AA18A91937
:100D4D00F582758300120800FFE515540704FEEFC8
:100D5D00A806088002C333D8FC30D705751603806A
:100D6D002F751601802AAB17AA18A91975F002E57F
:100D7D0015A4F58285F083120800F50DE51575F0C3
:100D8D0002A429F9EA35F0FA900001120800F516CF
:0A0D9D000515D20A22C204438F108C
:010DA7002229
:10098000900000E014F0701F740AF0D20590002966
:10099000E014F07012740AF0D20890006DE014F0C8
:1009A0007005740AF0D20190002AA3E0FAA3E0F9DE
:1009B0001208AC90002DA3E0FAA3E0F91208AC9065
:1009C0000039A3E0FAA3E0F91208AC900045A3E0D7
:1009D000FAA3E0F91208AC900054A3E0FAA3E0F9FE
:1009E0001208AC90005DA3E0FAA3E0F91208AC9005
:1009F000004BA3E0FAA3E0F91208ACEF600C900002
:100A00001DA3E0FAA3E0F91208AC90004EA3E0FAAF
:100A1000A3E0F91208ACEF600E900020A3E0FAA367
:100A2000E0F91208ACD20BE512D394004016D512AF
:100A30003030090C900023A3E0FAA3E0F91208ACCF
:100A4000D20C801D900051A3E0FAA3E0F91208AC8B
:100A5000EF600E900023A3E0FAA3E0F91208ACD2F5
:0D0A60000C900005A3E0FAA3E0F90208AC39
:100BFE0090003FA3E0FAA3E0F91208AC900042A3E4
:100C0E00E0FAA3E0F91208AC900033A3E0FAA3E0F7
:100C1E00F91208AC900008A3E0FAA3E0F91208ACB0
:100C2E00900030A3E0FAA3E0F91208ACEF600C904C
:100C3E000011A3E0FAA3E0F91208AC900036A3E08D
:100C4E00FAA3E0F91208ACEF600C900017A3E0FADB
:100C5E00A3E0F91208AC900048A3E0FAA3E0F91261
:100C6E0008ACEF600C90001AA3E0FAA3E0F91208AA
:100C7E00AC30060EC206900026A3E0FAA3E0F912ED
:030C8E0008AC228D
:100FE00090000BA3E0FAA3E0F91208AC90003CA338
:100FF000E0FAA3E0F91208ACEF600C900014A3E053
:10100000FAA3E0F91208AC900057A3E0FAA3E0F9C4
:0F1010001208AC90005AA3E0FAA3E0F90208AC72
:10108C00AF11AE10AD0FAC0E9000601208A0900026
:10109C0064E514F0E4F511F510F50FF50EF5149068
:0B10AC00000EA3E0FAA3E0F90208AC7C
:10101F00300705C207120D1D300D05C20D120980D4
:10102F00300505C205120BFE300805C208120FE08D
:10103F00300105C20112108CE5112401F511E435C0
:0E104F0010F510E4350FF50FE4350EF50E2206
:100E33008B1A8A1B891CEFB40C005070900E46F875
:100E4300282873020E6A020E6F020E74020E7902D4
:100E53000E7E020E83020E88020E8D020E92020E89
:100E630097020E9C020EA190000580359000088029
:100E73003090000B802B90000E8026900011802173
:100E8300900017801C900014801790001A80129015
:100E9300001D800D900020800890002380039000A7
:0D0EA30026E51AF0A3E51BF0A3E51CF022E4
:07113C007B017A00796022BB
:100C9D0002105DE493A3F8E493A34003F68001F200
:100CAD0008DFF48029E493A3F85407240CC8C33358
:100CBD00C4540F4420C8834004F456800146F6DF27
:100CCD00E4800B0102040810204080900DA8E47E02
:100CDD00019360BCA3FF543F30E509541FFEE4931C
:100CED00A360010ECF54C025E060A840B8E493A3E3
:100CFD00FAE493A3F8E493A3C8C582C8CAC583CA0E
:100D0D00F0A3C8C582C8CAC583CADFE9DEE780BEC5
:010E320000BF
:10080000BB010CE58229F582E5833AF583E02250AD
:1008100006E92582F8E622BBFE06E92582F8E222F7
:0D082000E58229F582E5833AF583E4932211
:10082D00E88FF0A4CC8BF0A42CFCE98EF0A42CFC6A
:10083D008AF0EDA42CFCEA8EF0A4CDA8F08BF0A4E8
:10084D002DCC3825F0FDE98FF0A42CCD35F0FCEB47
:10085D008EF0A4FEA9F0EB8FF0A4CFC5F02ECD390C
:0F086D00FEE43CFCEAA42DCE35F0FDE43CFC2279
:100F9C00C2D5E830E70FB2D5E4C39BFBE49AFAE480
:100FAC0099F9E498F8EC30E717B2D5120FD2120881
:100FBC00EEE4C39BFBE49AFAE499F9E498F8800315
:100FCC001208EE30D50DE4C39FFFE49EFEE49DFDB8
:040FDC00E49CFC2273
:10087C00E86010ECA2E713FCED13FDEE13FEEF1392
:04088C00FFD8F0227F
:10089000E493FC740193FD740293FE740393FF22AE
:0C08A000ECF0A3EDF0A3EEF0A3EFF022CB
:0608AC008A838982E473D7
:1008B20075F008758200EF2FFFEE33FECD33CDCCFD
:1008C20033CCC58233C5829BED9AEC99E582984080
:1008D2000CF582EE9BFEED9AFDEC99FC0FD5F0D65D
:1008E200E4CEFBE4CDFAE4CCF9A88222B800C1B987
:1008F2000059BA002DEC8BF084CFCECDFCE5F0CBC5
:10090200F97818EF2FFFEE33FEED33FDEC33FCEBFD
:1009120033FB10D703994004EB99FB0FD8E5E4F9B8
:10092200FA227818EF2FFFEE33FEED33FDEC33FCA5
:10093200C933C910D7059BE99A4007EC9BFCE99A99
:10094200F90FD8E0E4C9FAE4CCFB2275F010EF2FDE
:10095200FFEE33FEED33FDCC33CCC833C810D707DE
:100962009BEC9AE899400AED9BFDEC9AFCE899F819
:0E0972000FD5F0DAE4CDFBE4CCFAE4C8F922AC
:00000001FF
