:03000000020EF0FD
:0C0EF000787FE4F6D8FD758129020F37E9
:1012B60000A8C0003F065B4F666D7D077F6F007715
:1012C6007C395E79713D760F0E753837545C7367DD
:1012D6003149783E1C7E646E59BF86DBCFE6EDFD54
:0312E60087FFEF90
:030DB600011E1803
:1012E9007F011211708F227F04121170E522B4015F
:1012F9000CE51ED394034005E51E13F51EBF010D31
:10130900E51EC394C05006E51E25E0F51EAF1E027A
:021319001417A7
:1011FA007F9812131B1213977D07E4FF1213E875E9
:10120A0025047526057527067528077529087B03A1
:10121A007D027F011213777F181214177BFF7A124F
:0F122A0079E97F0712100712141D12127880FB4A
:0913DF008B88898C88898F88892C
:100DB90052007A86860086860086860086860086A8
:090DC900860086860041006F09D6
:03002B00021411AB
:0614110053BCEFD20F32C4
:02080000151FC2
:10080200200F030209A9C20F90006EE0B409004054
:100812000302098B90081DF8282873020864020855
:100822003802084A02087602083802084A02088D8D
:1008320002083802084AAFBDEFFEADBE7C00E42DCF
:10084200FFEC3E900070803CAFBDEFFEADBE7C0081
:10085200E42DFFEC3E900072F0A3EFF0751A010256
:100862000991AFBDEFFEADBE7C00E42DFFEC3E90E2
:1008720000748010AFBDEFFEADBE7C00E42DFFEC36
:100882003E900076F0A3EFF0020991AFBDEFFEAD0E
:10089200BE7C00E42DFFEC3E900078F0A3EFF090D8
:1008A2000078E0FEA3E07807CEC313CE13D8F9A8F0
:1008B2001FF6C394065013A81FE675F003A4247A0A
:1008C200F582E43400F583E014F090006FE014F058
:1008D20060030209917409F0A81FE4F6A81FE6FF5D
:1008E200C394064003020991EF75F003A4247AF53C
:1008F20082E43400F583E0C39480502AE6FF75F069
:1009020003A4247BF582E43400F583E0D394804091
:1009120040EF75F003A4247CF582E43400F583747F
:1009220001F0F51B802BA81FE6FF75F003A4247BC2
:10093200F582E43400F583E0C394805014EF75F03F
:1009420003A4247CF582E43400F5837402F0751B61
:1009520001A81FE6FF75F003A4247AF582E43400AF
:10096200F583E0FEEF75F003A4247BF582E4340006
:10097200F583EEF0E675F003A4247AF582E4340000
:10098200F5837486F0060208DE90006E74FFF09024
:10099200006EE0D39407400374FFF090006EE00411
:0709A200F09013DF93F5BC98
:0309A900051F2205
:0213C300151FF4
:0913C500A81FA61BE4F51BE6FFBE
:0313CE00051F22D6
:0213D100151FE6
:0913D300A81FA61AE4F51AE6FFB2
:0313DC00051F22C8
:10131B008F9D75BC88439720D2AD90004574FFF02C
:10132B00A37408F0A37400F0A374FFF0A37413F07C
:10133B00A374C3F0A374FFF0A37413F0A374D1F0E0
:01134B00227F
:071403007B017A00797022E1
:10117000C3EF64809480403BD3EF64809485503308
:10118000EFFD3395E0FC90007C75F003ED120A58FA
:10119000EC75F003A42583F583E0FE90007C75F0E8
:1011A00003ED120A58EC75F003A42583F583E4F0EF
:0511B000AF06227F03E1
:0111B5002217
:100C2500E4F580900097E0FFB40800505F900C3920
:100C3500F8282873020C51020C57020C5D020C6354
:100C4500020C69020C73020C7D020C87C2A3C2A2BE
:100C55008016C2A3C2A2801AC2A3C2A2801EC2A3CA
:100C6500C2A28022C2A3D2A2C2A1C2A08020C2A3D6
:100C7500D2A2C2A1D2A08016C2A3D2A2D2A1C2A0E2
:100C8500800CC2A3D2A2D2A1D2A08002D2A3C3EF6C
:100C9500648094885029900097E0FF3395E0FE74B6
:100CA5008E2FF58274003EF583E0FF3395E0FE74E8
:100CB500BA2FF58274123EF583E493F580801E9079
:100CC5000097E0FFB408133395E0FE748E2FF5828C
:100CD50074003EF583E0F5808003E4F58090008D97
:100CE500E0FF900097E004FEF0D3EF6480F8EE6437
:100CF50080984014E0D36480948850047408F022EE
:090D050090008CE0900097F022B0
:10139700E4F5937594FF5395F043960F90002A74E4
:0B13A700FFF0A3740CF0A37425F022EB
:0913E80090008CEFF0A3EDF0225F
:1013770090008EEFF0A3EDF0A3EBF0A3E525F0A32B
:10138700E526F0A3E527F0A3E528F0A3E529F02259
:06141700900096EFF022A8
:100DD2004100000A4100290A41006D0A040E000088
:100DE20000000114004600670000FFFF8FFFC10DE5
:100DF200C105C108C101C10E60240005FF1429FF0D
:100E02001429FF1429FF1429FF1429FF1429FF14A0
:100E120029FF1429FF1429FF1429FF1429FF14297B
:100E22006036002AFF1429FF1429FF1423FF142916
:100E3200FF1423FF1429FF1423FF1429FF1429FF91
:100E42001429FF1423FF1423FF1423FF1423FF1478
:0A0E520029FF1429FF1429FF1429B9
:0114290022A0
:031423007F002225
:10112900438E805389F07BE07A2879017800901208
:10113900B6120A3C1211B6EFF404F58A7BE07A285C
:10114900790178009012B6120A3C1211B6C3E49FD5
:10115900FFE49EFE74019DFDE49CFC7808120A28B8
:071169008F8CD28CD2A92269
:03000B000210D709
:0410D700C0E0C0D0E5
:1010DB00D5080A75084C300D020514D20DA2037207
:1010EB00045036150AE50A7030850C0AD207300A0F
:1010FB0017E50D6007150D438F01801D538FFEC241
:10110B00B5D51615C20A8011050BE50BD394064015
:09111B0008C203E5136002D206CC
:05112400D0D0D0E03244
:10108400300E47C20E9012B6120A3C7810120A288B
:101094008E1C8F1D900003E0FEA3E0FFE4FCFD7BAB
:1010A40019FAF9F81209D9C006C007AE1CAF1DAB76
:1010B40007AA06E4F9F8D007D0061211B67803128D
:1010C4000A28900065EEF0A3EFF0900065E0FEA31F
:0210D400E0FF3B
:0110D60022F7
:0913F100900067E0FEA3E0FF227A
:0913FA00900067EEF0A3EFF02271
:1013B20090006BEEF0A3EFF0900069ECF0A3EDF07B
:0113C2002208
:03142600C2B4222B
:03003B00020D0EA5
:100D0E00C0E0C083C082C0D075D000C004C005C092
:030D1E0006C00705
:100D210030DF04C2DF807D30DA04C2DA807630D968
:100D31003DC2D9AFFBEFFEADEB7C00E42DFFEC3EF5
:100D410020000E900001F0A3EFF075DB11D20080BE
:100D510053FE900001E0FCA3E0FDC3EF9DFFEE9C7C
:100D6100A3F0A3EFF075DB00C200D20E803630D8BD
:100D710033C2D8900067E07002A3E06022B2B49061
:100D81000069E0FEA3E0F5EAEEF5FAA3E0FEA3E0D8
:100D9100FF90006AE02FF0900069E03EF08005C20C
:040DA100B453DAFE6F
:100DA500D007D006D005D004D0D0D082D083D0E0F3
:010DB500320B
:06141D00121129D2AF22DA
:100F7C003004047F0180027F00200A047E0180027D
:100F8C007E00EE5F6074E515C3950950683002363B
:100F9C00750D01E515131313541FAB17AA18A919D6
:100FAC00F5827583001209ACFFE515540704FEEFBA
:100FBC00A806088002C333D8FC30D7057516038009
:100FCC002F751601802AAB17AA18A91975F002E51E
:100FDC0015A4F58285F0831209ACF50DE51575F0B5
:100FEC0002A429F9EA35F0FA9000011209ACF516C1
:0A0FFC000515D20A22C204438F102B
:0110060022C7
:100B3800900000E014F0701F740AF0D205900029AC
:100B4800E014F07012740AF0D20890006DE014F00E
:100B58007005740AF0D20190002AA3E0FAA3E0F924
:100B6800120A6490002DA3E0FAA3E0F9120A649037
:100B78000039A3E0FAA3E0F9120A64900045A3E063
:100B8800FAA3E0F9120A64900054A3E0FAA3E0F98A
:100B9800120A6490005DA3E0FAA3E0F9120A6490D7
:100BA800004BA3E0FAA3E0F9120A64EF600C90008E
:100BB8001DA3E0FAA3E0F9120A6490004EA3E0FA3C
:100BC800A3E0F9120A64EF600E900020A3E0FAA3F4
:100BD800E0F9120A64D20BE512D394004016D5123C
:100BE8003030090C900023A3E0FAA3E0F9120A645C
:100BF800D20C801D900051A3E0FAA3E0F9120A6418
:100C0800EF600E900023A3E0FAA3E0F9120A64D281
:0D0C18000C900005A3E0FAA3E0F9020A64C5
:100E5D0090003FA3E0FAA3E0F9120A64900042A3C8
:100E6D00E0FAA3E0F9120A64900033A3E0FAA3E0DC
:100E7D00F9120A64900008A3E0FAA3E0F9120A64DB
:100E8D00900030A3E0FAA3E0F9120A64EF600C9031
:100E9D000011A3E0FAA3E0F9120A64900036A3E072
:100EAD00FAA3E0F9120A64EF600C900017A3E0FAC0
:100EBD00A3E0F9120A64900048A3E0FAA3E0F91246
:100ECD000A64EF600C90001AA3E0FAA3E0F9120A8D
:100EDD006430060EC206900026A3E0FAA3E0F912D4
:030EED000A642272
:1012390090000BA3E0FAA3E0F9120A6490003CA322
:10124900E0FAA3E0F9120A64EF600C900014A3E03D
:10125900FAA3E0F9120A64900057A3E0FAA3E0F9AF
:0F126900120A6490005AA3E0FAA3E0F9020A64A3
:10134C00AF11AE10AD0FAC0E900060120A4C9000B5
:10135C0064E514F0E4F511F510F50FF50EF51490A5
:0B136C00000EA3E0FAA3E0F9020A64FF
:10127800300705C207120F7C300D05C20D120B385E
:10128800300505C205120E5D300805C20812123974
:10129800300105C20112134CE5112401F511E435A2
:0E12A80010F510E4350FF50FE4350EF50E22AB
:101007008B228A238924EFB40C00507090101AF8B1
:1010170028287302103E02104302104802104D02A6
:10102700105202105702105C021061021066021083
:101037006B021070021075900005803590000880D3
:101047003090000B802B90000E802690001180219D
:10105700900017801C900014801790001A8012903F
:10106700001D800D900020800890002380039000D1
:0D10770026E522F0A3E523F0A3E524F022F6
:07140A007B017A00796022EA
:100EFC000211FAE493A3F8E493A34003F68001F201
:100F0C0008DFF48029E493A3F85407240CC8C333F6
:100F1C00C4540F4420C8834004F456800146F6DFC5
:100F2C00E4800B0102040810204080900DB6E47E92
:100F3C00019360BCA3FF543F30E509541FFEE493BA
:100F4C00A360010ECF54C025E060A840B8E493A381
:100F5C00FAE493A3F8E493A3C8C582C8CAC583CAAC
:100F6C00F0A3C8C582C8CAC583CADFE9DEE780BE64
:010E5C000095
:1009AC00BB010CE58229F582E5833AF583E0225000
:1009BC0006E92582F8E622BBFE06E92582F8E2224A
:0D09CC00E58229F582E5833AF583E4932264
:1009D900E88FF0A4CC8BF0A42CFCE98EF0A42CFCBD
:1009E9008AF0EDA42CFCEA8EF0A4CDA8F08BF0A43B
:1009F9002DCC3825F0FDE98FF0A42CCD35F0FCEB9A
:100A09008EF0A4FEA9F0EB8FF0A4CFC5F02ECD395E
:0F0A1900FEE43CFCEAA42DCE35F0FDE43CFC22CB
:1011B600C2D5E830E70FB2D5E4C39BFBE49AFAE464
:1011C60099F9E498F8EC30E717B2D51211EC120A47
:1011D600A6E4C39BFBE49AFAE499F9E498F8800341
:1011E600120AA630D50DE4C39FFFE49EFEE49DFDE2
:0411F600E49CFC2257
:100A2800E86010ECA2E713FCED13FDEE13FEEF13E4
:040A3800FFD8F022D1
:100A3C00E493FC740193FD740293FE740393FF2200
:0C0A4C00ECF0A3EDF0A3EEF0A3EFF0221D
:0C0A5800A42582F582E5F03583F58322A9
:060A64008A838982E4731D
:100A6A0075F008758200EF2FFFEE33FECD33CDCC43
:100A7A0033CCC58233C5829BED9AEC99E5829840C6
:100A8A000CF582EE9BFEED9AFDEC99FC0FD5F0D6A3
:100A9A00E4CEFBE4CDFAE4CCF9A88222B800C1B9CD
:100AAA000059BA002DEC8BF084CFCECDFCE5F0CB0B
:100ABA00F97818EF2FFFEE33FEED33FDEC33FCEB44
:100ACA0033FB10D703994004EB99FB0FD8E5E4F9FF
:100ADA00FA227818EF2FFFEE33FEED33FDEC33FCEC
:100AEA00C933C910D7059BE99A4007EC9BFCE99AE0
:100AFA00F90FD8E0E4C9FAE4CCFB2275F010EF2F25
:100B0A00FFEE33FEED33FDCC33CCC833C810D70724
:100B1A009BEC9AE899400AED9BFDEC9AFCE899F85F
:0E0B2A000FD5F0DAE4CDFBE4CCFAE4C8F922F2
:00000001FF
