:03000000020BA848
:0C0BA800787FE4F6D8FD758125020BEF84
:0410B10000A8C000D3
:10105F0012103F7DB47C007FB07E04120DC71210BA
:06106F00AB120FAE80FB86
:041017001525152561
:10101B00121092A825A60608A607A825E6FE08E644
:0F102B00FF4E600BEF24FFFFEE34FFFE12109B11
:05103A0005250525223B
:10103F0053B1EF43B2101210B8E4F5D975DA49D2B3
:10104F00DE90003F74FFF0A37410F0A37417F0222A
:080DC7008E1A8F1B8C1C8D1D80
:100DCF00121092EF4E7066AF1DAE1C12109BC3E552
:100DDF001B940AE51A9400404BE47B18FAF9F8903B
:100DEF0010B112095E1208B8C006C007AE1AAF1BC9
:100DFF00AB07AA06E4F9F8D007D0061208B8AB077C
:100E0F00AA06AFF9EFFEADE97C00E42DFFEC3ECF73
:100E1F002BCF3AAD07FCAF03AE02121075D2D843F9
:0F0E2F00DA0180061210B853DAFE7F02227F0329
:010E3E002291
:0C108600121092EF4E7002FF227F012238
:100CBF004100000A4100290A41006D0A040E00009C
:100CCF0000000114004600670000FFFF8FFFC10DF9
:100CDF00C105C108C101C10E60240005FF10BBFF93
:100CEF0010BBFF10BBFF10BBFF10BBFF10BBFF10F3
:100CFF00BBFF10BBFF10BBFF10BBFF10BBFF10BB38
:100D0F006036002AFF10BBFF10BBFF10B5FF10BBF2
:100D1F00FF10B5FF10BBFF10B5FF10BBFF10BBFFDF
:100D2F0010BBFF10B5FF10B5FF10B5FF10B5FF10CA
:0A0D3F00BBFF10BBFF10BBFF10BB91
:0110BB002212
:0310B5007F002297
:100EE400438E805389F07BE07A2879017800901052
:100EF400B112095E120F2BEFF404F58A7BE07A2815
:100F0400790178009010B112095E120F2BC3E49F8F
:100F1400FFE49EFE74019DFDE49CFC780812094ADE
:070F24008F8CD28CD2A922B0
:03000B00020E9250
:040E9200C0E0C0D02C
:100E9600D5080A75084C300D020514D20DA203724E
:100EA600045036150AE50A7030850C0AD207300A56
:100EB60017E50D6007150D438F01801D538FFEC288
:100EC600B5D51615C20A8011050BE50BD39406405D
:090ED60008C203E5136002D20614
:050EDF00D0D0D0E0328C
:100E3F00300E47C20E9010B112095E781012094A97
:100E4F008E1E8F1F900003E0FEA3E0FFE4FCFD7BEE
:100E5F0019FAF9F812082DC006C007AE1EAF1FAB66
:100E6F0007AA06E4F9F8D007D006120F2B78031261
:100E7F00094A900065EEF0A3EFF0900065E0FEA345
:020E8F00E0FF82
:010E9100223E
:09109200900067E0FEA3E0FF22DC
:09109B00900067EEF0A3EFF022D3
:1010750090006BEEF0A3EFF0900069ECF0A3EDF0BB
:011085002248
:0310B800C2B4229D
:03003B00020A6D49
:100A6D00C0E0C083C082C0D075D000C004C005C036
:030A7D0006C007A9
:100A800030DF04C2DF807D30DA04C2DA807630D90C
:100A90003DC2D9AFFBEFFEADEB7C00E42DFFEC3E99
:100AA00020000E900001F0A3EFF075DB11D2008062
:100AB00053FE900001E0FCA3E0FDC3EF9DFFEE9C20
:100AC000A3F0A3EFF075DB00C200D20E803630D861
:100AD00033C2D8900067E07002A3E06022B2B49005
:100AE0000069E0FEA3E0F5EAEEF5FAA3E0FEA3E07C
:100AF000FF90006AE02FF0900069E03EF08005C2B0
:040B0000B453DAFE12
:100B0400D007D006D005D004D0D0D082D083D0E096
:010B140032AE
:0610AB00120EE4D2AF2298
:100C34003004047F0180027F00200A047E018002C8
:100C44007E00EE5F6074E515C39509506830023686
:100C5400750D01E515131313541FAB17AA18A91921
:100C6400F582758300120800FFE515540704FEEFB2
:100C7400A806088002C333D8FC30D7057516038054
:100C84002F751601802AAB17AA18A91975F002E569
:100C940015A4F58285F083120800F50DE51575F0AD
:100CA40002A429F9EA35F0FA900001120800F516B9
:0A0CB4000515D20A22C204438F1076
:010CBE002213
:10098000900000E014F0701F740AF0D20590002966
:10099000E014F07012740AF0D20890006DE014F0C8
:1009A0007005740AF0D20190002AA3E0FAA3E0F9DE
:1009B00012097A90002DA3E0FAA3E0F912097A90C7
:1009C0000039A3E0FAA3E0F912097A900045A3E008
:1009D000FAA3E0F912097A900054A3E0FAA3E0F92F
:1009E00012097A90005DA3E0FAA3E0F912097A9067
:1009F000004BA3E0FAA3E0F912097AEF600C900033
:100A00001DA3E0FAA3E0F912097A90004EA3E0FAE0
:100A1000A3E0F912097AEF600E900020A3E0FAA398
:100A2000E0F912097AD20BE512D394004016D512E0
:100A30003030090C900023A3E0FAA3E0F912097A00
:100A4000D20C801D900051A3E0FAA3E0F912097ABC
:100A5000EF600E900023A3E0FAA3E0F912097AD226
:0D0A60000C900005A3E0FAA3E0F902097A6A
:100B150090003FA3E0FAA3E0F912097A900042A3FE
:100B2500E0FAA3E0F912097A900033A3E0FAA3E012
:100B3500F912097A900008A3E0FAA3E0F912097AFC
:100B4500900030A3E0FAA3E0F912097AEF600C9067
:100B55000011A3E0FAA3E0F912097A900036A3E0A8
:100B6500FAA3E0F912097AEF600C900017A3E0FAF6
:100B7500A3E0F912097A900048A3E0FAA3E0F9127C
:100B8500097AEF600C90001AA3E0FAA3E0F91209C4
:100B95007A30060EC206900026A3E0FAA3E0F91209
:030BA500097A22A8
:100F6F0090000BA3E0FAA3E0F912097A90003CA3DA
:100F7F00E0FAA3E0F912097AEF600C900014A3E0F5
:100F8F00FAA3E0F912097A900057A3E0FAA3E0F967
:0F0F9F0012097A90005AA3E0FAA3E0F902097A46
:100FEC00AF11AE10AD0FAC0E90006012096E9000F8
:100FFC0064E514F0E4F511F510F50FF50EF5149009
:0B100C00000EA3E0FAA3E0F902097A4D
:100FAE00300705C207120C34300D05C20D12098030
:100FBE00300505C205120B15300805C208120F6F59
:100FCE00300105C201120FECE5112401F511E435D3
:0E0FDE0010F510E4350FF50FE4350EF50E2278
:100D4A008B228A238924EFB40C005070900D5DF831
:100D5A00282873020D81020D86020D8B020D900266
:100D6A000D95020D9A020D9F020DA4020DA9020D06
:100D7A00AE020DB3020DB8900005803590000880D0
:100D8A003090000B802B90000E802690001180215D
:100D9A00900017801C900014801790001A801290FF
:100DAA00001D800D90002080089000238003900091
:0D0DBA0026E522F0A3E523F0A3E524F022B6
:0710A4007B017A0079602254
:100BB40002105FE493A3F8E493A34003F68001F2E8
:100BC40008DFF48029E493A3F85407240CC8C33342
:100BD400C4540F4420C8834004F456800146F6DF11
:100BE400E4800B0102040810204080900CBFE47ED6
:100BF400019360BCA3FF543F30E509541FFEE49306
:100C0400A360010ECF54C025E060A840B8E493A3CC
:100C1400FAE493A3F8E493A3C8C582C8CAC583CAF7
:100C2400F0A3C8C582C8CAC583CADFE9DEE780BEAF
:010D490000A9
:10080000BB010CE58229F582E5833AF583E02250AD
:1008100006E92582F8E622BBFE06E92582F8E222F7
:0D082000E58229F582E5833AF583E4932211
:10082D00E88FF0A4CC8BF0A42CFCE98EF0A42CFC6A
:10083D008AF0EDA42CFCEA8EF0A4CDA8F08BF0A4E8
:10084D002DCC3825F0FDE98FF0A42CCD35F0FCEB47
:10085D008EF0A4FEA9F0EB8FF0A4CFC5F02ECD390C
:0F086D00FEE43CFCEAA42DCE35F0FDE43CFC2279
:10087C0075F008758200EF2FFFEE33FECD33CDCC33
:10088C0033CCC58233C5829BED9AEC99E5829840B6
:10089C000CF582EE9BFEED9AFDEC99FC0FD5F0D693
:1008AC00E4CEFBE4CDFAE4CCF9A88222B800C1B9BD
:1008BC000059BA002DEC8BF084CFCECDFCE5F0CBFB
:1008CC00F97818EF2FFFEE33FEED33FDEC33FCEB34
:1008DC0033FB10D703994004EB99FB0FD8E5E4F9EF
:1008EC00FA227818EF2FFFEE33FEED33FDEC33FCDC
:1008FC00C933C910D7059BE99A4007EC9BFCE99AD0
:10090C00F90FD8E0E4C9FAE4CCFB2275F010EF2F14
:10091C00FFEE33FEED33FDCC33CCC833C810D70714
:10092C009BEC9AE899400AED9BFDEC9AFCE899F84F
:0E093C000FD5F0DAE4CDFBE4CCFAE4C8F922E2
:100F2B00C2D5E830E70FB2D5E4C39BFBE49AFAE4F1
:100F3B0099F9E498F8EC30E717B2D5120F61120863
:100F4B00B8E4C39BFBE49AFAE499F9E498F88003BC
:100F5B001208B830D50DE4C39FFFE49EFEE49DFD5F
:040F6B00E49CFC22E4
:10094A00E86010ECA2E713FCED13FDEE13FEEF13C3
:04095A00FFD8F022B0
:10095E00E493FC740193FD740293FE740393FF22DF
:0C096E00ECF0A3EDF0A3EEF0A3EFF022FC
:06097A008A838982E47308
:00000001FF
