:03000000020EAD40
:0C0EAD00787FE4F6D8FD75813D020EF45C
:1012280000A8C0003F065B4F666D7D077F6F0077A3
:101238007C395E79713D760F0E753837545C73676B
:101248003149783E1C7E646E59BF86DBCFE6EDFDE2
:0312580087FFEF1E
:100D7300041C00000000040C00000000041000002C
:0C0D830000000814000000000000000048
:10099600E4FAF9F8E50B2401F50BEA350AF50AE95C
:1009A6003509F509E83508F5087FC87EDC7DFF7C4A
:1009B600FFAB0BAA0AA909F8C312087C7008F50B4D
:1009C600F50AF509F508E47BE87A03F9F8AF0BAE0A
:1009D6000AAD09AC0812112DAC00AD01AE02AF0391
:1009E6008F1F8E1E8D1D8C1CE47BE87A03F9F8AFF1
:1009F6000BAE0AAD09AC0812112DE47B3CFAF9F8EE
:100A060012112DAC00AD01AE02AF038F0F8E0E8D0D
:100A16000D8C0CE47B607AEAF9F8AF0BAE0AAD09EF
:100A2600AC0812112DE47B3CFAF9F812112DAC003A
:100A3600AD01AE02AF038F138E128D118C10E47BC5
:100A46000AFAF9F8AF1FAE1EAD1DAC1C12112DAF80
:100A5600038F1BE47B0AFAF9F8AF1FAE1EAD1DAC7F
:100A66001C12112DE47B0AFAF9F812112DAF038F2F
:100A76001AE47B64FAF9F8AF1FAE1EAD1DAC1C126A
:100A8600112D8F19E47B0AFAF9F8AF0FAE0EAD0DF2
:100A9600AC0C12112DAF038F18E47B0AFAF9F8AFEC
:100AA6000FAE0EAD0DAC0C12112D8F17E47B0AFAAA
:100AB600F9F8AF13AE12AD11AC1012112DAF038FB2
:100AC60016E47B0AFAF9F8AF13AE12AD11AC1012A8
:100AD600112D8F1575140A8517378518388519391C
:0F0AE600851A3A851B3BAB16AD15AF140212866D
:1011EE001212A67D07E4FF1212D27537017538016F
:1011FE00753901753A01753B017B017D017F011245
:10120E001286E4FF1212F47BFF7A097996E4FF123C
:0A121E000FC41212FA1211B080FB87
:100BE200E4F580900079E0FFB40800505F900BF6C6
:100BF200F8282873020C0E020C14020C1A020C20A4
:100C0200020C26020C30020C3A020C44C2A3C2A20D
:100C12008016C2A3C2A2801AC2A3C2A2801EC2A30D
:100C2200C2A28022C2A3D2A2C2A1C2A08020C2A319
:100C3200D2A2C2A1D2A08016C2A3D2A2D2A1C2A025
:100C4200800CC2A3D2A2D2A1D2A08002D2A3C3EFAF
:100C5200648094885029900079E0FF3395E0FE7417
:100C6200702FF58274003EF583E0FF3395E0FE7449
:100C72002C2FF58274123EF583E493F580801E904A
:100C82000079E0FFB408133395E0FE74702FF5820B
:100C920074003EF583E0F5808003E4F58090006FF8
:100CA200E0FF900079E004FEF0D3EF6480F8EE6498
:100CB20080984014E0D36480948850047408F02231
:090CC20090006EE0900079F02230
:1012A600E4F5937594FF5395F043960F90002A74D6
:0B12B600FFF0A3740BF0A374E2F02221
:0912D20090006EEFF0A3EDF02294
:10128600900070EFF0A3EDF0A3EBF0A3E537F0A329
:10129600E538F0A3E539F0A3E53AF0A3E53BF02203
:0612F400900078EFF022EB
:100D8F004100000A4100290A41006D0A04280000B1
:100D9F000000012E004600670000FFFF8FFFC10D0E
:100DAF00C105C108C101C10E60240005FF1306FF74
:100DBF001306FF1306FF1306FF1306FF1306FF1399
:100DCF0006FF1306FF1306FF1306FF1306FF130696
:100DDF006036002AFF1306FF1306FF1300FF1306EA
:100DEF00FF1300FF1306FF1300FF1306FF1306FF89
:100DFF001306FF1300FF1300FF1300FF1300FF1371
:0A0E0F0006FF1306FF1306FF13068B
:0113060022C4
:031300007F002249
:1010E600438E805389F07BE07A287901780090124C
:1010F600281208A612112DEFF404F58A7BE07A284F
:10110600790178009012281208A612112DC3E49FC7
:10111600FFE49EFE74019DFDE49CFC780812089293
:071126008F8CD28CD2A922AC
:03000B000210944C
:04109400C0E0C0D028
:10109800D5220A75224C300D02052ED20DA20372FC
:1010A8000450361524E5247030852624D207300AEA
:1010B80017E52760071527438F01801D538FFEC250
:1010C800B5D53015C20A80110525E525D39406400B
:0910D80008C203E52D6002D206F6
:0510E100D0D0D0E03288
:10104100300E47C20E9012281208A678101208928C
:101051008E3C8F3D900003E0FEA3E0FFE4FCFD7BAE
:1010610019FAF9F812082DC006C007AE3CAF3DAB26
:1010710007AA06E4F9F8D007D00612112D78031259
:101081000892900065EEF0A3EFF0900065E0FEA3FA
:02109100E0FF7E
:01109300223A
:0912DB00900067E0FEA3E0FF2291
:0912E400900067EEF0A3EFF02288
:1012C10090006BEEF0A3EFF0900069ECF0A3EDF06D
:0112D10022FA
:03130300C2B4224F
:03003B00020CCBE9
:100CCB00C0E0C083C082C0D075D000C004C005C0D6
:030CDB0006C00749
:100CDE0030DF04C2DF807D30DA04C2DA807630D9AC
:100CEE003DC2D9AFFBEFFEADEB7C00E42DFFEC3E39
:100CFE0020000E900001F0A3EFF075DB11D2008002
:100D0E0053FE900001E0FCA3E0FDC3EF9DFFEE9CBF
:100D1E00A3F0A3EFF075DB00C200D20E803630D800
:100D2E0033C2D8900067E07002A3E06022B2B490A4
:100D3E000069E0FEA3E0F5EAEEF5FAA3E0FEA3E01B
:100D4E00FF90006AE02FF0900069E03EF08005C24F
:040D5E00B453DAFEB2
:100D6200D007D006D005D004D0D0D082D083D0E036
:010D7200324E
:0612FA001210E6D2AF2243
:100F39003004047F0180027F00200A047E018002C0
:100F49007E00EE5F6074E52FC3952350683002364A
:100F5900752701E52F131313541FAB31AA32A93397
:100F6900F582758300120800FFE52F540704FEEF90
:100F7900A806088002C333D8FC30D7057530038032
:100F89002F753001802AAB31AA32A93375F002E5F9
:100F99002FA4F58285F083120800F527E52F75F057
:100FA90002A429F9EA35F0FA900001120800F53097
:0A0FB900052FD20A22C204438F1054
:010FC300220B
:100AF500900000E014F0701F740AF0D205900029F0
:100B0500E014F07012740AF0D20890006DE014F051
:100B15007005740AF0D20190002AA3E0FAA3E0F967
:100B25001208C290002DA3E0FAA3E0F91208C290C2
:100B35000039A3E0FAA3E0F91208C2900045A3E04A
:100B4500FAA3E0F91208C2900054A3E0FAA3E0F971
:100B55001208C290005DA3E0FAA3E0F91208C29062
:100B6500004BA3E0FAA3E0F91208C2EF600C900075
:100B75001DA3E0FAA3E0F91208C290004EA3E0FA23
:100B8500A3E0F91208C2EF600E900020A3E0FAA3DB
:100B9500E0F91208C2D20BE52CD394004016D52CEF
:100BA5003030090C900023A3E0FAA3E0F91208C243
:100BB500D20C801D900051A3E0FAA3E0F91208C2FF
:100BC500EF600E900023A3E0FAA3E0F91208C2D269
:0D0BD5000C900005A3E0FAA3E0F90208C2AD
:100E1A0090003FA3E0FAA3E0F91208C2900042A3AF
:100E2A00E0FAA3E0F91208C2900033A3E0FAA3E0C3
:100E3A00F91208C2900008A3E0FAA3E0F91208C266
:100E4A00900030A3E0FAA3E0F91208C2EF600C9018
:100E5A000011A3E0FAA3E0F91208C2900036A3E059
:100E6A00FAA3E0F91208C2EF600C900017A3E0FAA7
:100E7A00A3E0F91208C2900048A3E0FAA3E0F9122D
:100E8A0008C2EF600C90001AA3E0FAA3E0F9120876
:100E9A00C230060EC206900026A3E0FAA3E0F912B9
:030EAA0008C22259
:1011710090000BA3E0FAA3E0F91208C290003CA38F
:10118100E0FAA3E0F91208C2EF600C900014A3E0AA
:10119100FAA3E0F91208C2900057A3E0FAA3E0F91C
:0F11A1001208C290005AA3E0FAA3E0F90208C2B4
:10125B00AF2BAE2AAD29AC289000601208B69000D7
:10126B0064E52EF0E4F52BF52AF529F528F52E90FB
:0B127B00000EA3E0FAA3E0F90208C295
:1011B000300705C207120F39300D05C20D120AF5AE
:1011C000300505C205120E1A300805C20812117149
:1011D000300105C20112125BE52B2401F52BE43529
:0E11E0002AF52AE43529F529E43528F52822D8
:100FC4008B348A358936EFB40C005070900FD7F803
:100FD400282873020FFB02100002100502100A02F7
:100FE400100F02101402101902101E021023021016
:100FF4002802102D021032900005803590000880E0
:101004003090000B802B90000E80269000118021E0
:10101400900017801C900014801790001A80129082
:10102400001D800D90002080089000238003900014
:0D10340026E534F0A3E535F0A3E536F02203
:0712ED007B017A0079602209
:100EB9000211EEE493A3F8E493A34003F68001F250
:100EC90008DFF48029E493A3F85407240CC8C3333A
:100ED900C4540F4420C8834004F456800146F6DF09
:100EE900E4800B0102040810204080900D73E47E19
:100EF900019360BCA3FF543F30E509541FFEE493FE
:100F0900A360010ECF54C025E060A840B8E493A3C4
:100F1900FAE493A3F8E493A3C8C582C8CAC583CAEF
:100F2900F0A3C8C582C8CAC583CADFE9DEE780BEA7
:010E190000D8
:10080000BB010CE58229F582E5833AF583E02250AD
:1008100006E92582F8E622BBFE06E92582F8E222F7
:0D082000E58229F582E5833AF583E4932211
:10082D00E88FF0A4CC8BF0A42CFCE98EF0A42CFC6A
:10083D008AF0EDA42CFCEA8EF0A4CDA8F08BF0A4E8
:10084D002DCC3825F0FDE98FF0A42CCD35F0FCEB47
:10085D008EF0A4FEA9F0EB8FF0A4CFC5F02ECD390C
:0F086D00FEE43CFCEAA42DCE35F0FDE43CFC2279
:10112D00C2D5E830E70FB2D5E4C39BFBE49AFAE4ED
:10113D0099F9E498F8EC30E717B2D512116312095A
:10114D0004E4C39BFBE49AFAE499F9E498F880036C
:10115D0012090430D50DE4C39FFFE49EFEE49DFD0E
:04116D00E49CFC22E0
:10087C00EB9FF5F0EA9E42F0E99D42F0EC6480C8F3
:06088C0064809845F02293
:10089200E86010ECA2E713FCED13FDEE13FEEF137C
:0408A200FFD8F02269
:1008A600E493FC740193FD740293FE740393FF2298
:0C08B600ECF0A3EDF0A3EEF0A3EFF022B5
:0608C2008A838982E473C1
:1008C80075F008758200EF2FFFEE33FECD33CDCCE7
:1008D80033CCC58233C5829BED9AEC99E58298406A
:1008E8000CF582EE9BFEED9AFDEC99FC0FD5F0D647
:1008F800E4CEFBE4CDFAE4CCF9A88222B800C1B971
:100908000059BA002DEC8BF084CFCECDFCE5F0CBAE
:10091800F97818EF2FFFEE33FEED33FDEC33FCEBE7
:1009280033FB10D703994004EB99FB0FD8E5E4F9A2
:10093800FA227818EF2FFFEE33FEED33FDEC33FC8F
:10094800C933C910D7059BE99A4007EC9BFCE99A83
:10095800F90FD8E0E4C9FAE4CCFB2275F010EF2FC8
:10096800FFEE33FEED33FDCC33CCC833C810D707C8
:100978009BEC9AE899400AED9BFDEC9AFCE899F803
:0E0988000FD5F0DAE4CDFBE4CCFAE4C8F92296
:00000001FF
